:100000000C946C060C94B3060C94B3060C94B306D3
:100010000C94B3060C94B3060C94B3060C94B3067C
:100020000C94B3060C94B3060C948F210C946222AA
:100030000C949D180C94B3060C94B3060C94B30660
:100040000C94B3060C94B3060C94B3060C94B3064C
:100050000C94B3060C94FE180C94B3060C94B306DF
:100060000C94B3060C94B3060C94B3060C94B3062C
:100070000C94B3060C94B3060C94B3060C94B3061C
:100080000C94B3060C94B3060C94B3060C94B3060C
:100090000C94B3060C94B3060C94B3060C94B306FC
:1000A0000C94B3060C94B3060C94B30629001E00FE
:1000B0001F0020002100220023002400250026002C
:1000C00027002D002E0035002A003A003B003C009E
:1000D0003D003E0000702B0014001A0008001500BF
:1000E00017001C0018000C00120013002F00300035
:1000F0004A004C005F00600061005600000058009C
:10010000E200E30004001600070009000A000B00EB
:100110000D000E000F003300340028005200510083
:100120005C005D005E0057006300E000E1001D0020
:100130001B000600190005002C00110010003600FD
:1001400037003800E500310050004F0059005A00D8
:100150005B006200010001000100010001000100DC
:100160000100010001000100010001000100010087
:100170000100010001000100010001000100010077
:100180000100010001000100010001000100010067
:100190000100010001000100010001000100010057
:1001A0000100010000000100010001000100010048
:1001B0000100010001000100010001000100010037
:1001C0000100010001000100010001000100010027
:1001D0000100010001000100010001000100010017
:1001E0000100010001000100010001000100010007
:1001F00001000100010001000100010001000100F7
:1002000001000100010001000100010001000100E6
:1002100001000100010001000100010001000100D6
:1002200001000100010001000100010001000100C6
:1002300001000100010001000100010001000100B6
:1002400001000100010001000100010000000100A7
:100250000100010001000100010001000100010096
:100260000100010001000100010001000100010086
:100270000100010001000100010001000100010076
:100280000100010001000100010001000100010066
:100290000100010001000100010001000100010056
:1002A0000100010001000100010001000100010046
:1002B0000100010001000100010001000100010036
:1002C0000100010001000100010001000100010026
:1002D0000100010001000100010001000100010016
:1002E0000100010001000100010001000100010006
:1002F00001000100000001000100010001000100F7
:1003000001000100010001000100010001000100E5
:1003100001000100010001000100010001000100D5
:1003200001000100010001000100010001000100C5
:1003300001000100010001000100010001000100B5
:1003400001000100010001000100010001000100A5
:100350000100010001000100010001000100010095
:100360000100010001000100010001000100010085
:100370000100010001000100010001000100010075
:100380000100010001000100010001000100010065
:100390000100010001000100010001000000010056
:1003A0000100010001000100010001000100010045
:1003B0000100010001000100010001000100010035
:1003C0000100010001000100010001000100010025
:1003D0000100010001000100010001000100010015
:1003E0000100010001000100010001000100010005
:1003F00001000100010001000100010001000100F5
:1004000001000100010001000100010001000100E4
:1004100001000100010001000100010001000100D4
:1004200001000100010001000100010001000100C4
:1004300001000100010001000100010001000100B4
:1004400001000100000001000100010001000100A5
:100450000100010001000100010001000100010094
:100460000100010001000100010001000100010084
:100470000100010001000100010001000100010074
:100480000100010001000100010001000100010064
:100490000100010001000100010001000100010054
:1004A0000100010001000100010001000100010044
:1004B0000100010001000100010001000100010034
:1004C0000100010001000100010001000100010024
:1004D0000100010001000100010001000100010014
:1004E0000100010001000100010001000000010005
:1004F00001000100010001000100010001000100F4
:1005000001000100010001000100010001000100E3
:1005100001000100010001000100010001000100D3
:1005200001000100010001000100010001000100C3
:1005300001000100010001000100010001000100B3
:1005400001000100010001000100010001000100A3
:100550000100010001000100010001000100010093
:100560000100010001000100010001000100010083
:100570000100010001000100010001000100010073
:100580000100010001000100010001000100010063
:100590000100010000000100010001000100010054
:1005A0000100010001000100010001000100010043
:1005B0000100010001000100010001000100010033
:1005C0000100010001000100010001000100010023
:1005D0000100010001000100010001000100010013
:1005E0000100010001000100010001000100010003
:1005F00001000100010001000100010001000100F3
:1006000001000100010001000100010001000100E2
:1006100001000100010001000100010001000100D2
:1006200001000100010001000100010001000100C2
:1006300001000100010001000100010000000100B3
:1006400001000100010001000100010001000100A2
:100650000100010001000100010001000100010092
:100660000100010001000100010001000100010082
:100670000100010001000100010001000100010072
:100680000100010001000100010001000100010062
:100690000100010001000100010001000100010052
:1006A0000100010001000100010001000100010042
:1006B0000100010001000100010001000100010032
:1006C0000100010001000100010001000100010022
:1006D0000100010001000100010001000100010012
:1006E0000100010000000100010001000100010003
:1006F00001000100010001000100010001000100F2
:1007000001000100010001000100010001000100E1
:1007100001000100010001000100010001000100D1
:1007200001000100010001000100010001000100C1
:1007300001000100010001000100010001000100B1
:1007400001000100010001000100010001000100A1
:100750000100010001000100010001000100010091
:100760000100010001000100010001000100010081
:100770000100010001000100010001000100010071
:100780000100010001000100010001000000010062
:100790000100010001000100010001000100010051
:1007A0000100010001000100010001000100010041
:1007B0000100010001000100010001000100010031
:1007C0000100010001000100010001000100010021
:1007D0000100010001000100010001000100010011
:1007E0000100010001000100010001000100010001
:1007F00001000100010001000100010001000100F1
:1008000001000100010001000100010001000100E0
:1008100001000100010001000100010001000100D0
:1008200001000100010001000100010001000100C0
:1008300001000100000001000100010001000100B1
:1008400001000100010001000100010001000100A0
:100850000100010001000100010001000100010090
:100860000100010001000100010001000100010080
:100870000100010001000100010001000100010070
:100880000100010001000100010001000100010060
:100890000100010001000100010001000100010050
:1008A0000100010001000100010001000100010040
:1008B0000100010001000100010001000100010030
:1008C0000100010001000100010001000100010020
:1008D0000100010001000100010001000000010011
:1008E0000100010001000100010001000100010000
:1008F00001000100010001000100010001000100F0
:1009000001000100010001000100010001000100DF
:1009100001000100010001000100010001000100CF
:1009200001000100010001000100010001000100BF
:1009300001000100010001000100010001000100AF
:10094000010001000100010001000100010001009F
:10095000010001000100010001000100010001008F
:10096000010001000100010001000100010001007F
:10097000010001000100010001000100010001006F
:100980000100010000000100010001000100010060
:10099000010001000100010001000100010001004F
:1009A000010001000100010001000100010001003F
:1009B000010001000100010001000100010001002F
:1009C000010001000100010001000100010001001F
:1009D000010001000100010001000100010001000F
:1009E00001000100010001000100010001000100FF
:1009F00001000100010001000100010001000100EF
:100A000001000100010001000100010001000100DE
:100A100001000100010001000100010001000100CE
:100A200001000100010001000100010000000100BF
:100A300001000100010001000100010001000100AE
:100A4000010001000100010001000100010001009E
:100A5000010001000100010001000100010001008E
:100A6000010001000100010001000100010001007E
:100A7000010001000100010001000100010001006E
:100A8000010001000100010001000100010001005E
:100A9000010001000100010001000100010001004E
:100AA000010001000100010001000100010001003E
:100AB000010001000100010001000100010001002E
:100AC000010001000100010001000100010001001E
:100AD000010001000000010001000100010001000F
:100AE00001000100010001000100010001000100FE
:100AF00001000100010001000100010001000100EE
:100B000001000100010001000100010001000100DD
:100B100001000100010001000100010001000100CD
:100B200001000100010001000100010012036B003F
:100B30006500790062006F006100720064000000CF
:100B4000160371006D006B006200750069006C0097
:100B500064006500720000000403090409026D00CE
:100B6000040100A0FA0904000001030101000921A9
:100B7000110100012240000705810308000A090451
:100B800001000103010200092111010001224D00B1
:100B90000705820308000A0904020001030000009F
:100BA0000921110100012236000705830308000A0C
:100BB00009040300010300000009211101000122C2
:100BC0003900070584032000011201100100000014
:100BD00008EDFE606001000102000105010906A1A7
:100BE00001050719E029E715002501950875018120
:100BF00002050819012905950575019102950175F0
:100C00000391010507190029F71500250195F875CD
:100C1000018102C005010980A1018502160100269B
:100C200003001A81002A8300751095018100C00518
:100C30000C0901A1018503160100269C021A01007E
:100C40002A9C02751095018100C005010902A101CD
:100C50000901A100050919012905150025019505BE
:100C60007501810295017503810105010930093182
:100C70001581257F95027508810609381581257F24
:100C8000950175088106050C0A38021581257F95A6
:100C90000175088106C0C005010906A101050719F3
:100CA000E029E71500250195087501810295017578
:100CB000088101050819012905950575019102951D
:100CC00001750391010507190029FF150026FF0092
:100CD000950675088100C00011241FBECFEFDAE031
:100CE000DEBFCDBF04B603FE27C08091690290919C
:100CF0006A02A0916B02B0916C028730904BA740C2
:100D0000B04BD1F41092690210926A0210926B02F9
:100D100010926C0214BE84B7877F84BF0FB6F8941C
:100D2000A8958091600088618093600010926000B7
:100D30000FBEE0E0F8E3099511E0A0E0B1E0EEE9D4
:100D4000FBE402C005900D92A034B107D9F722E070
:100D5000A0E4B1E001C01D92A936B207E1F70E94FC
:100D6000E51E0C94A1250C94000090E080E008950D
:100D70000895089581E00895089581E008950C9400
:100D8000BA060E94DE102FEF84E39CE021508040E1
:100D90009040E1F700C000000C942119EF92FF92FF
:100DA0000F931F93CF93DF938C01FC01E080F180C0
:100DB00080918C01811140C082818823C1F1C701DB
:100DC0000E946316C82F682FC7010E940C16B70136
:100DD0008C2F0E940608EC01B8010E94BF068823F0
:100DE00009F44BC0B801CE010E940F0A882309F410
:100DF00044C0C531F0E7DF0720F5C23080E7D807EF
:100E000008F04DC0C115E0E7DE0791F1C130D047D1
:100E1000E1F181E08093420180934301C801DF91B9
:100E2000CF911F910F91FF90EF900C94BD06C701D9
:100E30000E943A16C82FCBCFC7010E946316B70194
:100E4000C8CFCC3380E7D80709F49BC0CD33D04757
:100E500001F7F8018281882309F4BAC01092430196
:100E60000E94CD18909341018093400180E296C08A
:100E7000F801828181110E94C10680E0DF91CF914B
:100E80001F910F91FF90EF900895F80182818823C0
:100E9000A1F380912902816080932902EECFF801AD
:100EA0008281882309F4BACF0E941E18811102C0E2
:100EB0000E9404180E943B1890E090935B0280937C
:100EC0005A02FE01E350F04780915A028160E231FC
:100ED000F10538F4ED55FA4D0C94512580915A02E4
:100EE000826080935A0280915A020E943F180E94A9
:100EF000DE10C3CF80915A028460F3CF80915A02F2
:100F00008860EFCF80915A028061EBCF80915A02C6
:100F10008062E7CF80915A028064E3CF80915A02C9
:100F20008068DFCF80915A028C60DBCF80915A02BB
:100F30008E7FD7CF80915A028D7FD3CF80915A0276
:100F40008B7FCFCF80915A02877FCBCF80915A027F
:100F50008F7EC7CF80915A028F7DC3CF80915A0276
:100F60008F7BBFCF80915A028F77BBCF80915A027F
:100F7000837FB7CF90915A02892F97FB87F98058CA
:100F8000B0CFF8018281882361F0109242010E9463
:100F9000CD18909341018093400182E00E94430E5E
:100FA0006CCF8091420181110FC0809140019091DE
:100FB00041010E94D918883C910530F486E20E94D4
:100FC000180D86E20E94F40D82E00E944A0E55CF71
:100FD0008091430181110FC08091400190914101A6
:100FE0000E94D918883C910530F487E20E94180DC0
:100FF00087E20E94F40D80E2E8CF0C945E0A0C9424
:10100000600A0C94BC060C9401080895972F70E0B8
:1010100025E1929F600D711D1124FB0194E5899FCC
:10102000E00DF11D1124EE0FFF1FE455FF4F8591D8
:1010300094910895FC01EE0FFF1FE45DF44F85913C
:10104000949108950E9406080E9493099C018115BD
:1010500040E4940708F097C0211580E3380708F0B2
:10106000FAC0203E310508F074C0203C310508F07C
:10107000E5C0283A310588F4253A310508F0E2C088
:101080002130310509F477C0C9010497813A9105EF
:1010900008F471C030E020E06EC0C901885A91099F
:1010A0004597C0F7283A310509F4FEC0293A3105C1
:1010B00009F4FDC02A3A310509F4FCC02B3A310588
:1010C00009F4FBC02C3A310509F4FAC02B3B310579
:1010D00009F4F9C02C3B310509F4F8C02D3A31056B
:1010E00009F4F7C0203B310509F4F6C02E3A31056A
:1010F00009F4F5C02F3A310509F4F4C0213B31055C
:1011000009F4F3C0223B310509F4F2C0233B310559
:1011100009F4F1C0243B310509F4F0C0253B310549
:1011200009F4EFC0263B310509F4EEC0273B310539
:1011300009F4EDC0283B310509F4ECC0293B310529
:1011400009F4EBC02A3B310509F4EAC020E034E49D
:1011500012C0211590E2390780F42F3F310509F0C4
:1011600050F4283E310538F0C901805F910930659F
:10117000409708F08FCFC9010895C9019F700E9460
:101180001A089C01F8CF8115944508F041C021153B
:1011900083E5380708F06AC0211592E5390738F56C
:1011A000211541E5340708F05CC0211580E53807BA
:1011B00008F454C0C90134E0969587953A95E1F753
:1011C0008370422F46954695437090E2499FA00157
:1011D0001124582B822F837021E030E002C0220FAF
:1011E000331F8A95E2F7242B352B3C68C4CFC90105
:1011F0008370992741E050E002C0440F551F8A9543
:10120000E2F72695269580E2289F90011124EBCFE6
:10121000211596E5390748F4922F88272115354581
:10122000C8F59C01246F306AA6CFC90190563F7063
:101230008115904108F02ECF30629DCFC901805CAE
:1012400091099DCF253A310549F1263A310549F5F5
:1012500022E830E490CF3327306C8DCF3F70306A76
:101260008ACF322F2227216F306A85CFC901837040
:10127000992741E050E002C0440F551F8A95E2F7DC
:101280002695269580E2289F90011124242B352B4A
:101290003A6871CF88279F719C01CECF21E830E456
:1012A0006ACF23E830E467CF22EE34E464CF29EE3E
:1012B00034E461CF2AEE34E45ECF25EB34E45BCF37
:1012C00026EB34E458CF23EB34E455CF24EB34E45D
:1012D00052CF27EB34E44FCF2CEC34E44CCF2DEC41
:1012E00034E449CF23E835E446CF2AE835E443CF58
:1012F00022E935E440CF24E935E43DCF21E236E46C
:101300003ACF23E236E437CF24E236E434CF25E285
:1013100036E431CF26E236E42ECF27E236E42BCF77
:101320002AE236E428CF803E910581F1C8F481336A
:10133000910509F462C048F48932910509F456C058
:101340008A32910509F460C0089589339105B9F096
:1013500082389105A1F08533910509F440C00895C4
:10136000863E910561F138F4823E9105B1F0833EED
:101370009105E1F00895873E910551F1089520917E
:101380005A022370D9F080EE90E0089520915A021D
:1013900020FF14C089E390E0089520915A0222FFB3
:1013A0000DC024FD09C083EE90E0089520915A02FB
:1013B00022FD31C024FF02C090E080E0089520911A
:1013C0005A0223FFFBCF24FDF7CF87EE90E008956C
:1013D00020915A0223FFEECF86EE90E008952091EF
:1013E0005A0225FFEBCF89E290E0089520915A023E
:1013F00025FFE4CF85E390E0089520915A0226FF6F
:10140000DDCF8AE290E0089520915A0226FFD6CFE0
:1014100081E390E0089582EE90E0089508950F939F
:101420001F93CF938C01FB018281811106C0C1E023
:101430008C2FCF911F910F910895C0915101C1112F
:1014400025C00531104799F70E940E0A81E080936C
:1014500051010E94CD189093500180934F0110923A
:1014600044011092460110924501109248011092D9
:10147000470110924A011092490110924C011092BA
:101480004B0110924E0110924D01D2CF80914F012D
:10149000909150010E94D918883C910540F68091A6
:1014A0004401E82FF0E0EE0FFF1FEB5BFE4F1183CE
:1014B00000838F5F80934401C0E0BACF0C94B806DC
:1014C0000C94B90685B7806885BF85B7806885BFED
:1014D000A8E2B1E061E070E08D91E82FE295EF7055
:1014E000F0E041A18F709B0101C0220F8A95EAF7BD
:1014F000922F9095942391A382A1822B82A381E0C5
:10150000AC32B80749F7A3E1B1E061E070E08D913A
:10151000E82FE295EF70F0E041A18F709B0101C0D0
:10152000220F8A95EAF7922F9095942391A382A196
:10153000822B82A381E0A832B80749F7E2E6F1E006
:10154000A2E5B1E082E791E011921192119211921D
:101550001D921D921D921D928E179F07A9F70C9444
:10156000FD072F923F924F925F926F927F928F92E0
:101570009F92AF92BF92CF92DF92EF92FF920F9322
:101580001F93CF93DF93CDB7DEB72B970FB6F894A9
:10159000DEBF0FBECDBF82E5282E81E0382E08E2E7
:1015A00011E01E830D8338862F82C12CD12C760149
:1015B000C394AF81B8858D909D90AD90BD90B88754
:1015C000AF83FD011292129212921292FB87EA8768
:1015D000AD81BE818D91BE83AD83E82FE295EF7022
:1015E000F0E091A18F7001E010E002C0000F111F28
:1015F0008A95E2F71A830983802F892B81A382A120
:1016000000950987802382A310EA1A95F1F723E158
:1016100031E03C832B8390E080E0AB81BC817D9006
:10162000BC83AB83272D22952F7030E0D901909693
:101630005C90AA85BB854D915D916D917C91272D24
:101640002F7001E010E002C0000F111F2A95E2F791
:101650009801252109F07AC097018601082E04C05F
:10166000000F111F221F331F0A94D2F728013901DE
:101670004429552966297729AA85BB854D935D9311
:101680006D937C93139701968531910531F681A175
:101690001985182311A382A1B9818B2B82A3EA8516
:1016A000FB8580819181A281B38188169906AA0663
:1016B000BB0649F0F1E0F09372010E94CD189093BF
:1016C0007401809373010F8118850256114009F04F
:1016D00070CF809172018823E9F08091730190911D
:1016E00074010E94D9180697A8F022E631E0F101B2
:1016F00081919191A191B1911F01F90181939193F0
:10170000A193B1939F01F2E62F16F1E03F0679F71E
:10171000109272010E94FF0781E02B960FB6F89499
:10172000DEBF0FBECDBFDF91CF911F910F91FF9014
:10173000EF90DF90CF90BF90AF909F908F907F9071
:101740006F905F904F903F902F900895412C512CB7
:1017500032018ECFCF93DF9300D000D0CDB7DEB76C
:1017600094E0899FF0011124EE59FE4F8081918110
:10177000A281B381BC01CD010F900F900F900F900B
:10178000DF91CF910895089590937A018093790124
:101790000895E0917901F0917A01309721F001905C
:1017A000F081E02D099480E00895E0917901F091B5
:1017B0007A01309721F00280F381E02D0994089599
:1017C000E0917901F0917A01309721F00480F58160
:1017D000E02D099408952091770130917801281720
:1017E000390771F09093780180937701E091790146
:1017F000F0917A01309721F00680F781E02D09946D
:10180000089520917501309176012817390771F0FC
:101810009093760180937501E0917901F0917A01BE
:10182000309721F00084F185E02D09940895089502
:101830000C94170C0E94C4180E94620A0C948D1913
:101840004F925F926F927F929F92AF92BF92CF9290
:10185000DF92EF92FF920F931F93CF93DF9300D00D
:1018600000D00F92CDB7DEB70E94B10A2CE7A22EAE
:1018700021E0B22E10E000E0902E802F0E94AA0BF3
:101880006B017C01F50141905190619071905F0175
:101890004C145D046E047F0409F475C08091290224
:1018A00081FD0E94C30B90E080E04C245D246E24F7
:1018B0007F24B301A201082E04C076956795579541
:1018C00047950A94D2F740FF59C089839A82412CE8
:1018D000512C3201439404C0440C551C661C771CE7
:1018E0008A95D2F7C420D520E620F72081E0CD28C4
:1018F000CE28CF2809F480E08B830E94CD18816028
:10190000782F9D838C8349815A816B818D810E94C0
:10191000EF0C000F111F000F111FF801E458FE4FCC
:1019200080819181A281B38184259525A625B72543
:1019300080839183A283B3830E943A1C0E94C90BC7
:1019400090917B018917B1F10E94C90B80937B01B3
:101950000F900F900F900F900F90DF91CF911F91EC
:101960000F91FF90EF90DF90CF90BF90AF909F903E
:101970007F906F905F904F900C9403080196853193
:10198000910509F096CF0F5F1F4F0430110509F044
:1019900073CF8FEF89838A831B820E94CD18816069
:1019A000782F9D838C8349815A816B818D810E9420
:1019B000EF0CC2CF0F900F900F900F900F90DF9110
:1019C000CF911F910F91FF90EF90DF90CF90BF903C
:1019D000AF909F907F906F905F904F900895CF93BE
:1019E000DF93CDB7DEB72B970FB6F894DEBF0FBEEF
:1019F000CDBF4F83588769877A878B871E8285E0A2
:101A0000FE013796DE01119601900D928A95E1F75D
:101A100049815A816B817C818D819E812B960FB685
:101A2000F894DEBF0FBECDBFDF91CF910C9466134B
:101A3000882309F4D8C0823871F40E94C90B81FD53
:101A4000D2C089E30E940B170E94D51789E30E9438
:101A500048170C94D517833859F40E94C90B80FDA0
:101A6000C2C083E50E940B170E94D51783E5EFCF14
:101A7000843859F40E94C90B82FDB5C087E40E94E6
:101A80000B170E94D51787E4E2CF9CEF980F913A8D
:101A900018F40E940B17DDCF90E2980F983050F4A5
:101AA000877091E001C0990F8A95EAF7892F0E940B
:101AB0008C17CFCF9BE5980F933070F4853A31F0B7
:101AC000863A39F083E890E00C94EB0B81E890E0E3
:101AD000FBCF82E890E0F8CF98E5980F953108F0B9
:101AE00082C0883A09F440C0893A09F440C08A3A71
:101AF00009F440C08B3A09F440C08C3A09F440C064
:101B00008B3B09F440C08C3B09F440C08D3A09F48A
:101B100040C0803B09F440C08E3A09F440C08F3A7F
:101B200009F440C0813B09F440C0823B09F440C045
:101B3000833B09F440C0843B09F440C0853B09F471
:101B400040C0863B09F440C0873B09F440C0883B55
:101B500009F440C0893B09F440C08A3B09F440C005
:101B600090E080E00C94010C82EE90E0FBCF89EED7
:101B700090E0F8CF8AEE90E0F5CF85EB90E0F2CFE1
:101B800086EB90E0EFCF83EB90E0ECCF84EB90E03E
:101B9000E9CF87EB90E0E6CF8CEC90E0E3CF8DECE3
:101BA00090E0E0CF83E891E0DDCF8AE891E0DACF02
:101BB00082E991E0D7CF84E991E0D4CF81E292E04D
:101BC000D1CF83E292E0CECF84E292E0CBCF85E228
:101BD00092E0C8CF86E292E0C5CF87E292E0C2CF22
:101BE0008AE292E0BFCF0895882309F44BC082387F
:101BF00071F40E94C90B81FF45C089E30E940B1755
:101C00000E94D51789E30E9448170C94D517833892
:101C100059F40E94C90B80FF35C083E50E940B1761
:101C20000E94D51783E5EFCF843859F40E94C90B81
:101C300082FF28C087E40E940B170E94D51787E413
:101C4000E2CF9CEF980F913AF0F290E2980F983023
:101C500050F4877091E001C0990F8A95EAF7892FB7
:101C60000E949217D2CF9BE5980F933020F490E01A
:101C700080E00C94EB0B885A853120F490E080E0F2
:101C80000C94010C0895882321F00E948C170C9469
:101C9000D5170895882321F00E9492170C94D51728
:101CA00008958F929F92AF92BF92DF92EF92FF9230
:101CB0000F931F93CF93DF9300D000D00F92CDB737
:101CC000DEB77C016D837983FC01058102950F707D
:101CD000128111110E94AB170E940417D82E88237D
:101CE00071F01123A1F08D81805E883080F082E058
:101CF0000E94EE160E94041791E0D82ED926E981A1
:101D0000E295EF70F0E0EB54FA4D0C945125D12C94
:101D1000F6CF09810F70F981F07F11F00295007FF5
:101D20001123B1F0002361F08D81805E883018F0BE
:101D30002D81211109C0802F0E948C170E94D51778
:101D40008D810E94180D15C0802F0E949D17F6CF1F
:101D50008D810E94F40D002361F08D81805E8830BA
:101D600018F03D81311129C0802F0E9492170E94E6
:101D7000D517DD2009F4D3C10E94E11680FDCFC143
:101D8000F70112820E94DB160E942415C7010E94EF
:101D9000A0100E94DB160F900F900F900F900F90E5
:101DA000DF91CF911F910F91FF90EF90DF90BF9047
:101DB000AF909F908F900C944615802F0E94A31790
:101DC000D6CF49814F70B42E5981507F503219F0CF
:101DD000B29480EFB8228D81882369F0813029F197
:101DE000112369F1002359F0F701858180FFA8CF05
:101DF0008F70858304C0112361F0011104C08B2D05
:101E00000E94430EB6CF8B2D0130D1F70E94BF1731
:101E1000B0CF011106C00E94C2178B2D0E944A0E3E
:101E2000A8CF013009F4A5CFF6CF112321F0063059
:101E300008F09FCFE4CF053008F09BCFEECF002312
:101E400061F38D810E94F40D94CF898186958695EA
:101E5000837069F0813009F08CCF8D819981937006
:101E6000111102C090E080E00E94010C82CF8D81B0
:101E700099819370111102C090E080E00E94EB0BF9
:101E800078CF8D81112329F00E94481B0E942F1CBE
:101E900070CF0E94B01BFACF8981837009F05FC0B8
:101EA000111167CF2D81229526952770220F220FC1
:101EB0008D818F7090E0B0E0A0E04C015D01022EBA
:101EC00004C0880C991CAA1CBB1C0A94D2F7FD8183
:101ED00060E070E0CB01F4FF0FC06FE070E080E0E5
:101EE00090E004C0660F771F881F991F2A95D2F7CC
:101EF00060957095809590952981269526952370FB
:101F00002D832230B1F0233019F19B01AC01282937
:101F100039294A295B2929833A834B835C833D8194
:101F200069817A818B819C813130B1F00E94B1143A
:101F300020CF9B01AC01282939294A295B29298313
:101F40003A834B835C83CA01B9010E94DB1411CF31
:101F50000E94B114C501B4010E9487140ACF86956E
:101F6000112311F089818170882309F402CF2D811A
:101F7000229526952770220F220F8D818F7090E079
:101F8000B0E0A0E04C015D01022E04C0880C991C59
:101F9000AA1CBB1C0A94D2F73D8160E070E0CB0123
:101FA00034FF0FC06FE070E080E090E004C0660F87
:101FB000771F881F991F2A95D2F760957095809595
:101FC000909549814695469543704D834230B1F0D6
:101FD000433019F19B01AC01282939294A295B2991
:101FE00029833A834B835C833D8169817A818B812C
:101FF0009C813130B1F00E94B715BBCE9B01AC0182
:10200000282939294A295B2929833A834B835C8310
:10201000CA01B9010E94E115ACCE0E94B715C501F5
:10202000B4010E948D15A5CE3D81323F09F447C011
:1020300080F4303F79F1313FD9F1832F805E8031D8
:10204000D0F0112309F456C001117ACE89818F7125
:1020500033C04D81433FD1F1443F99F7112309F437
:102060003FC089818F7189830E94241563E0898133
:102070000E94E5167ECE5D815F705D8389818F71E0
:10208000112321F00E9424158D81BACE0E9446159D
:102090008D81C4CE112341F0053008F06ACE8981CC
:1020A0008F710E946B1565CE063008F062CEF7CFB7
:1020B00089818F71112339F00E9424155ACE8981AC
:1020C0008F711123C9F30E94461553CE112329F0B5
:1020D00089818F710E940F154CCE0E94051549CE43
:1020E00081E00E94EE16023008F443CE82E00E94A6
:1020F000EE163FCE0111A5CE89818F71E4CF4981C3
:102100004F706D81C7010E94B5060E94001431CE48
:1021100049814F706D81C7010E9405082ACE0F903A
:102120000F900F900F900F90DF91CF911F910F9113
:10213000FF90EF90DF90BF90AF909F908F900895A9
:102140000F931F93CF93DF93EC018B819C81892B9D
:1021500029F08881998189238F3F29F4DF91CF91DC
:102160001F910F910895CE010E94CE068823B1F3EE
:10217000688179818A810E94B1168C010E940B16B8
:102180000E947C14B801CE01DF91CF911F910F9175
:102190000C94510E0E94AB170E94BC170E947E1730
:1021A0000E94D5170E94201D0E942F1C90E080E005
:1021B0000E94EB0B90E080E00C94010C0E949A17B7
:1021C0000C94CA100E94A516282F892F82958F7013
:1021D000903C80F48A30B0F4843020F4823090F463
:1021E00080E008958630E1F781E0203E88F0213FCD
:1021F000B9F70EC08C3011F08F3091F793FB882720
:1022000080F9089581E0203F39F018F4203E40F72E
:102210000895243F29F7FCCF0895CF93DF9300D092
:1022200000D00F92CDB7DEB70F900F900F900F90A8
:102230000F90DF91CF910895CF93DF9300D000D01E
:1022400000D0CDB7DEB726960FB6F894DEBF0FBE2E
:10225000CDBFDF91CF9108951F93CF93DF93E0918E
:102260008D0116E080918E018E1304C0DF91CF9115
:102270001F910895CE2FD0E01E9FF0011124E15749
:10228000FE4F4081518162817381848195810E94DA
:102290001C11FE013196E770E5CF4091BF015091CE
:1022A000C0016091C1017091C2018091C301909100
:1022B000C4010C941C111F93CF93DF938091C40130
:1022C000807FC1F48091C1018823A1F080918D01AC
:1022D000C0918E016091BF017091C0014091C20117
:1022E0005091C301D62FD723DA01A095B09516E0FF
:1022F000C81304C0DF91CF911F91089590E041155C
:10230000510511F0DF3F31F401968770F1CF2A0FAC
:102310003B1F17C0189FF001199FF00D1124E157C2
:10232000FE4F21812713F0CF20812613EDCF22818C
:102330002111EACF238134812417350740F3241B70
:10234000350B283C310500F72091C4012F70206126
:102350002093C40126E0289FF001299FF00D11244D
:10236000EC56FE4F80818F70806180838FEB91E00F
:102370000E94A010DF91CF911F910C942C119F927D
:10238000AF92BF92CF92DF92EF92FF920F931F9383
:10239000CF93DF93CDB7DEB72B970FB6F894DEBFA0
:1023A0000FBECDBF8C0185E0F801DE0117960190CC
:1023B0000D928A95E1F7D8014C9111965C91119795
:1023C0001296EC9012978091C2019091C3010097F0
:1023D00009F46BC12091BF013091C001632F6223CA
:1023E0006F3F09F462C11396CD90DC909090C101CB
:1023F000992009F4F8C0C816D90608F43FC0F601C0
:10240000E81BF90BCF01FF24F394883C910508F0F9
:10241000F12C8FEBA82E81E0B82E8091C401982F6B
:10242000907FFF2009F4B7C0911180C0FE2C3513B6
:102430002AC0241328C0E11026C08F7080618093C9
:10244000C4010E944D11C5010E94A0108091C401D9
:10245000D80115968C938F2D2B960FB6F894DEBF6E
:102460000FBECDBFDF91CF911F910F91FF90EF90E5
:10247000DF90CF90BF90AF909F90089580959095FA
:102480008C0D9D1DC0CFCD2829F0842F85238F3F33
:1024900009F019C180E0B82FB170DB2EE0918D01F9
:1024A00020918E0136E080FD1CC0EE20A1F28091CB
:1024B000C40181608093C401F12CCDCF8E2F90E0B8
:1024C0003E9FF0011124E157FE4F6181651306C064
:1024D0006081641303C062816E11E7CFFC01319605
:1024E000E770E213EBCF4F8358878F8198850E9466
:1024F000A516292F22952F70903260F0225F2F7041
:10250000223078F49F7051F0F8019581907F31F47A
:10251000D12C0AC09F7011F08823D1F3805E8830DF
:10252000B8F3C8010E94A010FD2C95CF351306C04A
:10253000241304C0D801EE2009F47BC04F835887D0
:102540008F8198850E94E210882309F4B8C0EE209C
:1025500009F4B5C08091C401803270F02091BF01B0
:102560003091C0013A8329831B82DD82CC828E8325
:10257000CE0101960E94A01086E0F801AFEBB1E019
:1025800001900D928A95E1F70E945B110E944D1116
:10259000FF24F39460CF911113C07C2DDB86CA8693
:1025A0006E2D8B850E940D118FEB91E00E94A01083
:1025B00086E0F50111928A95E9F70E944D114BCF03
:1025C0003513BCCF2413BACFE110B8CFD80115967C
:1025D0008C93C8010E94A01086E0F50111928A95A3
:1025E000E9F7F92C38CFC816D90688F1B601681B6F
:1025F000790BCB01F12C883C910508F047C0FE2CEB
:10260000EE2009F45CC0351330C024132EC0809135
:10261000C40180FD21C0982F907FF1F0D80115965C
:102620008C931597903F39F0982F907F905F8F7023
:10263000892B15968C93C8010E94A01086E0F801A2
:10264000AFEBB1E001900D928A95E1F7B6CF80959E
:1026500090958C0D9D1DCECF86E0F801AFEBB1E0DB
:1026600001900D928A95E1F7F6CE4F8358878F81BE
:1026700098850E94E21081117FCF8091C401816012
:102680008093C401C8010E94A010E5CE7C2DDB869A
:10269000CA866E2D8B850E940D1186E0EFEBF1E06E
:1026A000DF011D928A95E9F788CFEE2041F04F8334
:1026B00058878F8198850E94E21081115DCFC801F3
:1026C0000E94A01065CF81E08E25E5CE1F93CF93A9
:1026D000DF93CDB7DEB72C970FB6F894DEBF0FBEF1
:1026E000CDBF4F83588769877A878B879C87CE01B8
:1026F00007960E94BF11882369F08A859B85892BE4
:1027000039F04F815885842F85238F3F09F071C0A0
:1027100016E05FC086E0FE013796DE01119601905B
:102720000D928A95E1F78A859B85892B89F38885A7
:102730009F8189238F3F61F320918E0130E0C90191
:1027400001968770992740918D014817190671F4F9
:102750000E94DE1010928E0110928D0186E0EFEB48
:10276000F1E0DF011D928A95E9F7D2CF96E0929FC2
:10277000D001939FB00D1124A157BE4FFE01319699
:1027800001900D929A95E1F780938E010E942C1191
:10279000BFCF819FC001112481579E4F0E94BF115E
:1027A0008823E9F0E0918D011E9FF0011124E1578B
:1027B000FE4F4081518162817381848195810E94A5
:1027C0001C1180918D0190E001968770992780936C
:1027D0008D0180918D0190918E018913DACF2C9615
:1027E0000FB6F894DEBF0FBECDBFDF91CF911F9122
:1027F000089569857A858B859C850E941C1188CFF8
:10280000EF92FF920F931F93CF93DF938C01892B4D
:1028100089F0F12CEE24E394E8012196F8018491EB
:10282000843709F457C0A0F4823009F43EC048F45C
:102830008130D1F0DF91CF911F910F91FF90EF90F8
:1028400008959CEF980F9037A8F70E94180D0AC0C2
:10285000853709F44CC09CE7980F903758F78F776D
:102860000E94F40D8E0116C00E5F1F4FFE01849171
:1028700090E2980F983060F48770FE2D01C0FF0F32
:102880008A95EAF78F2F0E94AE170E94D51702C0D3
:102890000E94180D8F2D815008F4BECFEFE9FFE0A4
:1028A0003197F1F700C00000F6CF0E5F1F4FFE0119
:1028B000849190E2980F983050F48770FE2D01C0FB
:1028C000FF0F8A95EAF78F2F0E94B417DECF0E9480
:1028D000F40DE0CF0E5F1F4FFE01C491C150D0F246
:1028E0008FE99FE00197F1F700C00000F7CF0E5F7E
:1028F0001F4FFE01F490CECF0895609300027093B5
:10290000010280930202909303020C94CA10CF93A9
:10291000DF9300D000D0CDB7DEB769837A838B8395
:102920009C838091000290910102A0910202B091DB
:10293000030229813A814B815C81822B932BA42B4A
:10294000B52B8093000290930102A0930202B093F2
:1029500003020F900F900F900F90DF91CF910C9486
:10296000CA10CF93DF9300D000D0CDB7DEB7698314
:102970007A838B839C838091000290910102A091C5
:102980000202B091030229813A814B815C8182234A
:102990009323A423B5238093000290930102A09374
:1029A0000202B09303020F900F900F900F90DF91EF
:1029B000CF910C94CA10CF93DF9300D000D0CDB745
:1029C000DEB769837A838B839C8380910002909128
:1029D0000102A0910202B091030229813A814B8148
:1029E0005C8182279327A427B527809300029093C8
:1029F0000102A0930202B09303020F900F900F9078
:102A00000F90DF91CF910C94CA101092FC0110929C
:102A1000FD011092FE011092FF010C94CA1041E0DA
:102A200050E060E070E004C0440F551F661F771F40
:102A30008A95D2F74093FC015093FD016093FE010B
:102A40007093FF010C94CA10282F81E090E0A0E061
:102A5000B0E004C0880F991FAA1FBB1F2A95D2F7A8
:102A60004091FC015091FD016091FE017091FF01C8
:102A7000842B952BA62BB72B8093FC019093FD0103
:102A8000A093FE01B093FF010C94CA1041E050E006
:102A900060E070E004C0440F551F661F771F8A95E1
:102AA000D2F740955095609570958091FC0190917A
:102AB000FD01A091FE01B091FF0184239523A6237F
:102AC000B7238093FC019093FD01A093FE01B09386
:102AD000FF010C94CA10282F81E090E0A0E0B0E044
:102AE00004C0880F991FAA1FBB1F2A95D2F74091D7
:102AF000FC015091FD016091FE017091FF0184275E
:102B00009527A627B7278093FC019093FD01A093FA
:102B1000FE01B093FF010C94CA10CF93DF9300D055
:102B200000D0CDB7DEB769837A838B839C83809195
:102B3000FC019091FD01A091FE01B091FF0129815E
:102B40003A814B815C81822B932BA42BB52B8093F4
:102B5000FC019093FD01A093FE01B093FF010F9043
:102B60000F900F900F90DF91CF910C94CA10CF93DC
:102B7000DF9300D000D0CDB7DEB769837A838B8333
:102B80009C838091FC019091FD01A091FE01B09188
:102B9000FF0129813A814B815C8182239323A42305
:102BA000B5238093FC019093FD01A093FE01B093A7
:102BB000FF010F900F900F900F90DF91CF910C9429
:102BC000CA10CF93DF9300D000D0CDB7DEB76983B2
:102BD0007A838B839C838091FC019091FD01A0916D
:102BE000FE01B091FF0129813A814B815C818227EE
:102BF0009327A427B5278093FC019093FD01A09310
:102C0000FE01B093FF010F900F900F900F90DF9196
:102C1000CF910C94CA100895E82F25E1929FE00D02
:102C200011248E2F877041E001C0440F8A95EAF786
:102C3000E695E695E69585E0E89FF0011124EB53D3
:102C4000FE4F30E020E070E05191DF011197CB01A1
:102C5000022E02C0969587950A94E2F781708195BD
:102C60008527842385278C932F5F3F4F253031059F
:102C700059F70895E82F25E1929FE00D11249E2F2A
:102C80009770E695E695E69585E0E89FF0011124BA
:102C9000EB53FE4F50E040E080E0219130E0092E00
:102CA00002C0369527950A94E2F721703327042E47
:102CB00001C0220F0A94EAF7822B4F5F5F4F453025
:102CC000510559F70895BF92CF92DF92EF92FF928C
:102CD0000F931F93CF93DF938C01C090FC01D09092
:102CE000FD01E090FE01F090FF01809100029091C3
:102CF0000102A0910202B0910302C82AD92AEA2A4D
:102D0000FB2ACFE1D0E0BC2ED701C6010C2E04C0B7
:102D1000B695A795979587950A94D2F780FD0EC032
:102D2000219788F7B12C8B2DDF91CF911F910F91B7
:102D3000FF90EF90DF90CF90BF900895B8018C2F57
:102D40000E942208019761F3EECFCF93DF93D82F33
:102D5000C92F0E9463166D2F7C2FDF91CF910C94A9
:102D600022081F93CF93DF93162FD72F90918C01BA
:102D7000992339F0862F972FDF91CF911F910C94D3
:102D8000A516882391F0862F972F0E946316C82FCF
:102D9000682F812F9D2F0E940C16612F7D2F8C2F65
:102DA000DF91CF911F910C942208862F972F0E94BC
:102DB0003A16C82FF2CF80910402859585958595A6
:102DC0000895809104028770089598E0899F90018A
:102DD0001124622B609304020C9424159091040238
:102DE0008095892380930402282F277061F4282F6F
:102DF000082E000C330B9217130629F08595859544
:102E000085950C944615089590910402977081E081
:102E100009F480E00895909112019923E1F09091D6
:102E20005A0297FF18C0E82FE695E695E695EF3130
:102E300039F12091000130910101E20FF32FF11DD2
:102E4000877021E030E001C0220F8A95EAF7818186
:102E5000822B818308952091000130910101F901B5
:102E600032969FEF40E05191851751F09F3F19F442
:102E7000511101C0942F4F5F4E31A9F79F3F09F4C4
:102E80000895290F311D97FD3A95F9018283089520
:102E900090911201992301F190915A0297FF1CC061
:102EA000E82FE695E695E695EF3139F1209100019E
:102EB00030910101E20FF32FF11D877021E030E026
:102EC000A90102C0440F551F8A95E2F7CA018095F7
:102ED000918189238183089520910001309101011E
:102EE000F9013296205E3F4F9191891303C0DF01B3
:102EF00011971C92E217F307B9F7089581E090E06B
:102F0000E0910001F0910101E80FF91F1082019694
:102F100080329105A9F7089590912802982B9093FB
:102F200028020895982F90958091280289238093F4
:102F30002802089510922802089590912702982B54
:102F4000909327020895982F9095809127028923C6
:102F500080932702089510922702089590912602E7
:102F6000982B909326020895982F90958091260291
:102F70008923809326020895109226020895809353
:102F800005020895109205020895209100013091E4
:102F90000101F9013196205E3F4F80E0919191113E
:102FA0008F5FE217F307D1F70895E0910001F091E8
:102FB0000101809128028083E0910001F0910101DC
:102FC000808190912702892B8083E0910001F0910C
:102FD0000101808190912602892B808390910502C6
:102FE000992361F0E0910001F09101018081892B2A
:102FF00080830E94C5178111109205028091000103
:10300000909101010C94D50B6DEE7EEF90E080E085
:103010000E948B2560E082E090E00E94792560E0CC
:1030200083E090E00E94792560E084E090E00E94D7
:10303000792560E085E090E00C94792590E080E0CF
:103040000E9473259C0181E02D3E3E4F09F080E0F7
:10305000089582E090E00C946B25682F82E090E068
:103060000C94792583E090E00C946B25682F83E025
:1030700090E00C94792584E090E00C946B25682F07
:1030800084E090E00C94792580916002843039F1DD
:1030900010922A0288E190E020E40FB6F894A895F7
:1030A000809360000FBE2093600080E00E940308C0
:1030B00083B7817F846083BF83B7816083BF789447
:1030C000889583B78E7F83BF0FB6F894A8958091BB
:1030D0006000886180936000109260000FBE0895C8
:1030E00008950895CF93DF9300D000D00F92CDB70D
:1030F000DEB70E9470180E94B10A0E9471181D82EA
:103100008D810E94AA0B672B682B692B71F48D812E
:103110008F5F8D838430A1F780E00F900F900F9028
:103120000F900F90DF91CF91089581E0F6CF0E942C
:10313000DE100E94C90B0C9403081F921FB61F9249
:1031400011248F939F93AF93BF9380912A02811193
:1031500013C08091560290915702A0915802B091ED
:1031600059024196A11DB11D8093560290935702BA
:10317000A0935802B0935902BF91AF919F918F9144
:103180001F901FBE1F90189582E084BD93E095BDEF
:103190009AEF97BD80936E0008952FB7F8948091B1
:1031A000560290915702A0915802B09159022FBF38
:1031B0000895CF92DF92EF92FF929C014FB7F8945F
:1031C0008091560290915702A0915802B0915902F5
:1031D0004FBF6C017D01EE24FF24A90170E060E087
:1031E000C416D506E606F70638F0821B930BFF904F
:1031F000EF90DF90CF9008950197F7CF1F921FB601
:103200001F9211248F939F93AF93BF938091560287
:1032100090915702A0915802B09159020196A11DB8
:10322000B11D8093560290935702A0935802B09319
:103230005902BF91AF919F918F911F901FBE1F9018
:1032400018950E941421F8942FEF87EA91E62150F7
:1032500080409040E1F700C0000087E090EBDC0187
:103260008093690290936A02A0936B02B0936C0200
:1032700088E19CE00FB6F894A895809360000FBE9B
:1032800090936000FFCFAF92BF92CF92DF92EF9208
:10329000FF920F931F93CF93C0E0A82EB12C8C2FD9
:1032A0000E94AA0B6B017C0110E000E0D701C6016F
:1032B000002E04C0B695A795979587950A94D2F7E6
:1032C00080FF13C0602F7C2F80E00E940608A816A4
:1032D000B90659F481E0CF911F910F91FF90EF90C3
:1032E000DF90CF90BF90AF9008950F5F1F4F0531D3
:1032F0001105E1F6CF5FC43091F680E0ECCFCF93BB
:10330000C82F8CE20E944319882321F08C2FCF9183
:103310000C94431980E0CF910895CF93DF9300D0B0
:1033200000D0CDB7DEB70E941E18811102C00E94E6
:10333000041895E6998308C00E94B10A8FE39CE9BE
:103340000197F1F700C00000A981A150A983A11144
:10335000F3CF89E20E947F19811110C18AE20E9495
:103360007F1981110E94041885E00E947F19811144
:103370000E9421190E9429188093290287E00E9447
:103380007F19882371F08BE10E947F19882309F44B
:10339000D1C090912902892F8D7F91FF8260809307
:1033A0002902809129020E942D180E943B1890E06A
:1033B00090935B0280935A0280EE0E947F198823CB
:1033C00041F090915A02892F8E7F90FF8160809307
:1033D0005A0289E30E947F19882341F090915A0292
:1033E000892F8D7F91FF826080935A0282EE0E9426
:1033F0007F19882341F090915A02892F8B7F92FF89
:10340000846080935A0286EE0E947F19882341F0DF
:1034100090915A02892F877F93FF886080935A0288
:1034200083EE0E947F19882341F090915A02892FE0
:103430008F7E94FF806180935A0285E30E947F19FA
:10344000882341F090915A02892F8F7D95FF8062E9
:1034500080935A0281E30E947F19882341F0909162
:103460005A02892F8F7B96FF806480935A0281E1F4
:103470000E947F19882341F090915A02892F97FB6F
:1034800087F9805880935A0280915A020E943F180F
:1034900087E20E947F1989838EE10E947F19882329
:1034A00019F0B981B260B9838FE10E947F19882336
:1034B00019F029812460298380E20E947F198823E2
:1034C00019F039813860398381E20E947F1988239D
:1034D00019F049814061498382E20E947F19882363
:1034E00019F059815062598383E20E947F19882321
:1034F00019F089818064898384E20E947F1988237E
:10350000B1F199819068998389810E943618398137
:10351000232F30E050E040E029833A834B835C83E3
:10352000CA01B9010F900F900F900F90DF91CF91CA
:103530000C947D148EE00E947F19882339F09091BD
:103540002902892F8B7F92FF846029CF80E10E941E
:103550007F1990912902882329F0892F877F93FF73
:1035600088601DCF892F8E7F90FF816018CFA98141
:10357000A111CACF0E943218282FCBCF0F900F90E5
:103580000F900F90DF91CF91089580912D0280FFD1
:1035900012C06091050185E0689FB0011124759506
:1035A00067957595679560387105A8F56115710582
:1035B000A1F1862F089581FF09C06091050185E082
:1035C000689FB001112475956795EDCF6091050155
:1035D00082FD0AC080912E028823D1F090910401CF
:1035E00060910501891728F085E0689FB0011124DA
:1035F000DACF869FB001112485E0869F9001879FD6
:10360000300D1124692F70E0C9010E943D25CBCFF8
:1036100065E070E0CECF8FE7089581E00895809156
:103620002D0280FF0CC06091030170E075956795D5
:10363000759567956115710549F1862F089581FF8C
:1036400006C06091030170E075956795F3CF6091B6
:10365000030182FD0BC090912E029923A1F060918D
:10366000020180910301961738F0682F70E06038EE
:10367000710500F38FE70895899FC001112470E060
:103680000E943D25F4CF61E070E0D7CF81E008953E
:10369000803F31F40E94C51A8195809331020895CC
:1036A000813F19F40E94C51AF8CF823F31F40E947D
:1036B000C51A8195809330020895833F19F40E94C2
:1036C000C51AF8CF893F29F40E940F1B809332025C
:1036D00008958A3F21F40E940F1B8195F7CF8B3FFD
:1036E00031F40E940F1B81958093330208958C3F23
:1036F00019F40E940F1BF8CF843F31F480912F0200
:10370000816080932F020895853F21F480912F02DC
:103710008260F7CF863F21F480912F028460F1CF41
:10372000873F21F480912F028860EBCF883F21F4FE
:1037300080912F028061E5CF8D3F31F480912D0281
:10374000816080932D0208958E3F21F480912D0297
:103750008260F7CF8F3FB9F780912D028460F1CF5F
:1037600090913002803F41F48091310287FD1092A8
:103770003102992371F00895813F29F4809131023B
:103780001816ACF3F6CF823F81F497FFF2CF109278
:1037900030028091310290913202892B9091330254
:1037A000892B49F710922E020895833F19F41916B8
:1037B00074F3DFCF893F39F4809132021816CCF6CA
:1037C00010923202D6CF8A3F29F48091320287FFCD
:1037D000D0CFF6CF8B3F39F48091330287FFC9CF2A
:1037E00010923302C6CF8C3F29F480913302181611
:1037F000BCF3BFCF843F31F480912F028E7F809342
:103800002F02B7CF853F21F480912F028D7FF7CF14
:10381000863F21F480912F028B7FF1CF873F21F4E7
:1038200080912F02877FEBCF883F21F480912F0278
:103830008F7EE5CF8D3F31F480912D028E7F809376
:103840002D0297CF8E3F21F480912D028D7FF7CFEF
:103850008F3F09F08ECF80912D028B7FF0CF8FE2CA
:1038600092E00E94E00B0E94CD1890932C0280936E
:103870002B0208951F93CF93DF9300D000D000D088
:10388000CDB7DEB780912B0290912C020E94D918FF
:10389000AC0180912E022091060130E0811106C01A
:1038A000209107019AE0299F9001112442175307A4
:1038B00088F020913002A0913102A9831091320248
:1038C000B0913302BE8321110FC09A2F912B9B2BF5
:1038D00009F0B2C026960FB6F894DEBF0FBECDBF7A
:1038E000DF91CF911F9108958F3F19F08F5F8093E3
:1038F0002E02121624F40E94C51A80933002809181
:10390000300287FF05C00E94C51A8195809330025E
:103910002981121624F40E94C51A809331028091E5
:10392000310287FF05C00E94C51A8195809331023C
:1039300080913002882309F455C0309131023D83D3
:10394000332309F44FC0282F880F330B440B550B3A
:1039500029833A834B835C83CA01B9010E944424C2
:1039600023E333E343E35FE369837A838B839C83BD
:1039700069817A818B819C810E94A82469837A83E2
:103980008B839C8369817A818B819C810E940C242A
:10399000609330028D81082E000C990BAA0BBB0B93
:1039A00089839A83AB83BC83BC01CD010E944424EC
:1039B00023E333E343E35FE369837A838B839C836D
:1039C00069817A818B819C810E94A82469837A8392
:1039D0008B839C8369817A818B819C810E940C24DA
:1039E00060933102111624F40E940F1B809332025F
:1039F0008091320287FF05C00E940F1B8195809342
:103A000032029E81191624F40E940F1B8093330208
:103A10008091330287FF05C00E940F1B8195809320
:103A2000330226960FB6F894DEBF0FBECDBFDF91EE
:103A3000CF911F910C942F1C8F3F09F057CF68CF67
:103A400085E0EFE2F2E0DF011D928A95E9F710923E
:103A50002E0210922D020895809154020895CF9362
:103A6000DF9300D00F92CDB7DEB7209160022430F3
:103A700019F523E029838A839B832093E9008FEF44
:103A80009091E800815095FD06C095ED9A95F1F76B
:103A900000008111F5CF8091E80085FF0DC050E056
:103AA00040E063E070E0CE0101960E948C1F80919F
:103AB000E8008E778093E8000F900F900F90DF91D1
:103AC000CF910895CF93DF9300D00F92CDB7DEB79B
:103AD0009C0180916002843031F582E08983205816
:103AE00031093B832A8383E08093E9008FEF909133
:103AF000E800815095FD06C095ED9A95F1F700001C
:103B00008111F5CF8091E80085FF0DC050E040E0C5
:103B100063E070E0CE0101960E948C1F8091E80066
:103B20008E778093E8000F900F900F90DF91CF91E8
:103B30000895209160022430F1F422E02093E900FE
:103B40002FEF3091E800215035FD06C035ED3A9554
:103B5000F1F700002111F5CF2091E80025FF0BC0FF
:103B600050E040E065E070E00E948C1F8091E8002A
:103B70008E778093E8000895CF93DF93D82FC92FD5
:103B8000809160028430F1F4909112019923E9F060
:103B900090915A0297FF19C08093E9008FEF90919E
:103BA000E800815095FD06C095E19A95F1F7000077
:103BB0008111F5CF8091E80050E040E060E270E0D4
:103BC00085FD1AC0DF91CF91089581E08093E900CF
:103BD0008FEF9091E800815095FD06C095ED9A9584
:103BE000F1F700008111F5CF8091E80085FFEACF61
:103BF00050E040E068E070E08D2F9C2F0E948C1F09
:103C00008091E8008E778093E80080E2ED2FFC2F12
:103C1000A4E3B2E001900D928A95E1F7D3CF8091B1
:103C20005F02811109C00E9414210E9471218091BC
:103C3000E20084608093E200089510925F0208958C
:103C4000089508950C94971842E061EC81E00E9479
:103C5000902042E061EC82E00E94902042E061EC22
:103C600083E00E94902042E261EC84E00C9490207A
:103C700080916202893089F148F4823009F494C05D
:103C8000833009F44FC0813041F008958A3009F43F
:103C90007BC08B3009F461C0089580916102813A44
:103CA00009F03FC08091E800877F8093E800809111
:103CB000650290916602892B61F460E284E392E0F0
:103CC00070E00E94DB1F8091E8008B778093E80012
:103CD000089560E090E080E0F3CF8091610281324E
:103CE00001F58091650290916602009711F00397AB
:103CF000C1F48091E800877F8093E8008091E8001C
:103D000082FF0BC08091F100809354028091E80003
:103D10008B778093E8000C94C4208091600281111D
:103D2000EDCF089580916102813AD9F780916502C3
:103D300090916602892BA9F78091E800877F809394
:103D4000E8008091E80080FFFCCF80911201809311
:103D5000F1008091E8008E77DCCF809161028132A2
:103D600001F78091650290916602892BD1F68091CE
:103D7000E800877F8093E8000E94C420809163025E
:103D8000809312010C94DE1080916102813249F619
:103D90008091E800877F8093E8000E94C420809192
:103DA000640280935502089580916102813A09F07E
:103DB000B8CF8091E800877F8093E8008091E80089
:103DC00080FFFCCF80915502C2CF84B7877F84BF2C
:103DD0000FB6F894A8958091600088618093600088
:103DE000109260000FBE80E8809361001092610025
:103DF0000E94180C0E9414210E9471218091E200FF
:103E000084608093E20078940E94F1230E941A0C4F
:103E100088E091E00E94C40B80916002853019F027
:103E20000E94200CF9CF0E94441880915E028823E2
:103E300099F30E947218882379F30E94761FECCFC1
:103E40009C01DA01892F992783309105C1F068F42C
:103E50008130910509F445C0029761F48DE690E048
:103E60002CE53BE02D933C93089581329105E1F0E0
:103E7000829739F190E080E030E020E0F3CFC90193
:103E80009927213059F08230910559F0E8E5FBE09F
:103E9000892B81F7849190E09F01E4CFE0E4FBE07F
:103EA000F9CFECE2FBE0F6CF643020F7E62FF0E04C
:103EB000EE0FFF1FE85CFE4F2081318189E090E02A
:103EC000D1CF6430B8F670E0FB01EE0FFF1FE05D6C
:103ED000FE4F20813181645D7E4FFB01808190E047
:103EE000C1CF82E190E029EC3BE0BCCF80E189BD0D
:103EF00082E189BD09B400FEFDCF8091D8008F7D9D
:103F00008093D8008091E00082608093E0008091EF
:103F1000E00081FDFCCF0895AF92BF92CF92DF9277
:103F2000FF920F931F93CF93DF936C01EB018A01F4
:103F30000E94E320F82E811123C00115110539F0EC
:103F4000F80180819181C81BD90BC80ED91EB12CF4
:103F5000A12C2097A9F08091E80085FD22C08091D6
:103F6000E8008E778093E80001151105A1F0F801B3
:103F700080819181A80EB91EB182A08285E0F82EC1
:103F80008F2DDF91CF911F910F91FF90DF90CF90F8
:103F9000BF90AF9008950E94E3208823D1F2F82EBD
:103FA000EFCFF60181916F018093F1002197FFEF30
:103FB000AF1ABF0ACECFFC01CB012091670230912E
:103FC00068022617370790F0009729F42091E8003F
:103FD0002E772093E80040E0009751F4411108C08B
:103FE0008091E80082FF31C080E00895C901F3CFDD
:103FF000209160022223A9F12530A9F12091E80047
:1040000023FD2DC02091E80022FDEACF2091E80099
:1040100020FFE2CF3091F3002091F200009719F0D9
:104020002830310558F041E02830310509F040E0F2
:104030002091E8002E772093E800CECF4191409365
:10404000F10001972F5F3F4FE9CF809160028823F5
:1040500041F0853041F08091E80083FFC1CF81E0DD
:10406000089582E0089583E00895FC01CB0120913A
:104070006702309168022617370790F0009729F4FD
:104080002091E8002E772093E80040E0009751F45B
:10409000411108C08091E80082FF32C080E008959D
:1040A000C901F3CF209160022223B1F12530B1F193
:1040B0002091E80023FD2EC02091E80022FDEACFE8
:1040C0002091E80020FFE2CF3091F3002091F20030
:1040D000009719F02830310558F041E028303105BB
:1040E00009F040E02091E8002E772093E800CECF41
:1040F00044914093F100319601972F5F3F4FE8CFF5
:1041000080916002882341F0853041F08091E80081
:1041100083FFC0CF81E0089582E0089583E0089591
:10412000982F973028F08F708093E90081E00895F0
:104130009093E900242F762F50E0981731F070917A
:10414000EC002091ED005091F00021FD02C09F5F36
:10415000E8CF3091EB003E7F3093EB003091ED00E3
:104160003D7F3093ED003091EB0031603093EB00F8
:104170007093EC002093ED005093F0002091EE003E
:1041800027FDE5CF80E008958091610287FF13C08D
:104190008091E80082FF06C08091E8008B778093D1
:1041A000E80004C0809160028111F2CF08958091EF
:1041B00060028823D9F38091E80080FFF8CF8091D6
:1041C000E8008E77ECCF2091E4003091E50095E691
:1041D000A9012091EC00822F817020FF06C0809100
:1041E000E80080FF06C080E008952091E80022FDED
:1041F0001AC080916002882389F0853089F080910F
:10420000EB0085FD0FC02091E4003091E5004217DE
:104210005307F9F29150E1F684E0089582E00895A1
:1042200083E0089581E008950E9482210E948A21FE
:10423000E0EEF0E0808181608083E8EDF0E0808155
:104240008F77808319BCA7EDB0E08C918E7F8C9323
:1042500080818F7E808310925F0208950F931F9359
:10426000CF93DF930E9482210E948A21C8EDD0E083
:1042700088818F77888388818068888388818F7D13
:10428000888319BC1092600210925C0210925E0248
:1042900010925D0200EE10E0F80180818B7F808338
:1042A00088818160888342E060E080E00E94902005
:1042B000E1EEF0E080818E7F8083E2EEF0E08081AD
:1042C00081608083808188608083F80180818E7F17
:1042D0008083888180618883DF91CF911F910F91C6
:1042E0000895E8EDF0E080818F7E8083E7EDF0E0D7
:1042F00080818160808384E082BF81E080935F025F
:104300000C942E21E8EDF0E080818E7F8083109266
:10431000E20008951092DA001092E10008951F92D1
:104320000F920FB60F9211242F933F934F935F93E9
:104330006F937F938F939F93AF93BF93EF93FF936D
:104340008091E10082FF0BC08091E20082FF07C0F4
:104350008091E1008B7F8093E1000E94F0238091A7
:10436000DA0080FF19C08091D80080FF15C08091CD
:10437000DA008E7F8093DA008091D90080FF94C0AC
:1043800080E189BD82E189BD09B400FEFDCF81E0F5
:10439000809360020E940F1E8091E10080FF19C08F
:1043A0008091E20080FF15C08091E2008E7F8093B3
:1043B000E2008091E20080618093E2008091D80069
:1043C00080628093D80019BC85E0809360020E94CF
:1043D000211E8091E10084FF29C08091E20084FFCA
:1043E00025C080E189BD82E189BD09B400FEFDCF11
:1043F0008091D8008F7D8093D8008091E1008F7EDE
:104400008093E1008091E2008F7E8093E2008091B2
:10441000E20081608093E20080915C02882309F4CD
:1044200049C084E0809360020E94221E8091E100D6
:1044300083FF29C08091E20083FF25C08091E100C5
:10444000877F8093E10082E08093600210925C029B
:104450008091E1008E7F8093E1008091E2008E7F69
:104460008093E2008091E20080618093E20042E06C
:1044700060E080E00E9490208091F000886080934E
:10448000F0000E94201EFF91EF91BF91AF919F918C
:104490008F917F916F915F914F913F912F910F90ED
:1044A0000FBE0F901F90189519BC109260020E94C9
:1044B0001D1E72CF8091E30087FD02C081E0B2CF64
:1044C00083E0B0CF1F920F920FB60F9211242F935B
:1044D0003F934F935F936F937F938F939F93AF938C
:1044E000BF93CF93DF93EF93FF93D091E900DF70F9
:1044F0008091EC00C82FC17080FDC0E81092E900E7
:104500008091F000877F8093F00078940E94A6222B
:104510001092E9008091F00088608093F000CD2B2C
:10452000CF70C093E900FF91EF91DF91CF91BF91E0
:10453000AF919F918F917F916F915F914F913F913B
:104540002F910F900FBE0F901F9018951F93CF9330
:10455000DF93CDB7DEB7AA970FB6F894DEBF0FBED4
:10456000CDBF81E692E0FC0101962091F10020830D
:1045700022E089369207B9F70E94381E8091E80040
:1045800083FF16C180916102909162029A3008F017
:104590000FC1E92FF0E0EB53FA4D0C945125803810
:1045A00081F0823809F004C1809165028F70809398
:1045B000E9008091EB0085FB882780F91092E900E3
:1045C00006C080915D0290915E029111826090918F
:1045D000E800977F9093E8008093F1001092F1003B
:1045E0008091E8008E77E0C0882309F4CEC0823045
:1045F00009F0DEC0809163028111D1C08091650213
:104600008F7009F4D5C08093E9002091EB0020FF62
:10461000C6C0933031F48091EB0080628093EB0050
:10462000BEC09091EB0090619093EB0021E030E0F0
:1046300001C0220F8A95EAF72093EA001092EA005F
:104640008091EB008860EACF8111B2C010916302C3
:104650001F778091E3008078812B8093E300809125
:10466000E800877F8093E8000E94C4208091E800E2
:1046700080FFFCCF8091E30080688093E30082E0BC
:10468000111183E08093600293C08058823008F05B
:104690008FC080916302909164028C3D23E0920769
:1046A000A1F583E08A838AE289834FB7F894DE011B
:1046B000139620E03EE051E2E32FF0E050935700E4
:1046C000E49120FF03C0E295EF703F5FEF708E2F03
:1046D00090E0EA30C0F0C7968D939D932F5F243110
:1046E00059F74FBF8091E800877F8093E8006AE226
:1046F00070E0CE0101960E94DB1F8091E8008B776D
:104700008093E80055C0C096E7CFAE014F5F5F4F82
:10471000609165020E94201FBC01892B09F448C0EA
:104720008091E800877F8093E80089819A810E94C8
:104730003520E3CF8038E1F58091E800877F8093D2
:10474000E80080915C028093F1004ACF811130C073
:1047500090916302923060F58091E800877F8093AA
:10476000E80090935C020E94C42080915C02882340
:1047700011F084E005C08091E30087FDFACF81E06D
:10478000809360020E94241E13C0809163028130D6
:1047900079F481E0933009F080E080935E0210921A
:1047A000E9008091E800877F8093E8000E94C420A0
:1047B0008091E80083FF0AC08091E800877F8093A2
:1047C000E8008091EB0080628093EB00AA960FB620
:1047D000F894DEBF0FBECDBFDF91CF911F9108953A
:1047E0000895CF93809160028823A1F0C091E900E1
:1047F000CF709091EC00892F817090FD80E8C82BDC
:104800001092E9008091E80083FD0E94A622CF70FB
:10481000C093E900CF9108950E9413246894B111C8
:104820000C94A22408950E94872488F09F5798F042
:10483000B92F9927B751B0F0E1F0660F771F881FA5
:10484000991F1AF0BA95C9F714C0B13091F00E94BF
:10485000A124B1E008950C94A124672F782F882714
:10486000B85F39F0B93FCCF3869577956795B395E6
:10487000D9F73EF490958095709561957F4F8F4F55
:104880009F4F0895E89409C097FB3EF4909580955A
:10489000709561957F4F8F4F9F4F9923A9F0F92F06
:1048A00096E9BB279395F695879577956795B79584
:1048B000F111F8CFFAF4BB0F11F460FF1BC06F5F6A
:1048C0007F4F8F4F9F4F16C0882311F096E911C07C
:1048D000772321F09EE8872F762F05C0662371F09D
:1048E00096E8862F70E060E02AF09A95660F771FB1
:1048F000881FDAF7880F9695879597F9089557FDE1
:104900009058440F551F59F05F3F71F04795880F3D
:1049100097FB991F61F09F3F79F0879508951216D4
:1049200013061406551FF2CF4695F1DF08C0161680
:1049300017061806991FF1CF869571056105089431
:104940000895E894BB2766277727CB0197F9089548
:104950000E94BB240C942C250E941E2538F00E9436
:10496000252520F0952311F00C9415250C941B257A
:1049700011240C94A2240E947F2470F3959FC1F30C
:10498000950F50E0551F629FF001729FBB27F00DFD
:10499000B11D639FAA27F00DB11DAA1F649F662752
:1049A000B00DA11D661F829F2227B00DA11D621FA1
:1049B000739FB00DA11D621F839FA00D611D221F5B
:1049C000749F3327A00D611D231F849F600D211D3F
:1049D000822F762F6A2F11249F5750409AF0F1F0C2
:1049E00088234AF0EE0FFF1FBB1F661F771F881F2B
:1049F00091505040A9F79E3F510580F00C94152529
:104A00000C94A2245F3FE4F3983ED4F38695779507
:104A10006795B795F795E7959F5FC1F7FE2B880FD0
:104A2000911D9695879597F9089597F99F6780E866
:104A300070E060E008959FEF80EC089500240A94F0
:104A40001616170618060906089500240A94121669
:104A50001306140605060895092E0394000C11F49C
:104A6000882352F0BB0F40F4BF2B11F460FF04C049
:104A70006F5F7F4F8F4F9F4F089597FB072E16F460
:104A8000009407D077FD09D00E94572507FC05D078
:104A90003EF4909581959F4F0895709561957F4F55
:104AA0000895EE0FFF1F0590F491E02D0994AA1BC5
:104AB000BB1B51E107C0AA1FBB1FA617B70710F009
:104AC000A61BB70B881F991F5A95A9F7809590953B
:104AD000BC01CD010895F999FECF92BD81BDF89A30
:104AE000992780B50895A8E1B0E042E050E00C9429
:104AF0009325262FF999FECF92BD81BDF89A019793
:104B000000B4021639F01FBA20BD0FB6F894FA9A15
:104B1000F99A0FBE08950196272F0E947A250C94CA
:104B20007925DC01CB01FC01F999FECF06C0F2BD6D
:104B3000E1BDF89A319600B40D9241505040B8F75B
:104B40000895F894FFCF6E077A077E0782078607DD
:104B50008A078E07920796079A079E07A207A6075D
:104B6000AA07AE07B207B607BA07890E890EE10E8B
:104B7000E10E250F410FB90EB90E4C0FB90E1410EE
:104B800014107F10B90EB90E8810CF22F422D8234A
:0E4B9000F422D82324234523D8239A23A623D6
:104B9E0006022808140A321E2C1DBC1D991D621D0A
:104BAE002F1D013031323337909192936667959471
:104BBE009697343536F7F6F5C6F0F1F4404D3639A2
:104BCE00970C4A0C140CDB0B6E0B870BA00BB90B5E
:00000001FF
